{
  "contractName": "AssetTokenization",
  "abi": [
    {
      "inputs": [
        {
          "internalType": "uint256",
          "name": "_initialSupply",
          "type": "uint256"
        }
      ],
      "stateMutability": "nonpayable",
      "type": "constructor"
    },
    {
      "anonymous": false,
      "inputs": [
        {
          "indexed": true,
          "internalType": "address",
          "name": "owner",
          "type": "address"
        },
        {
          "indexed": true,
          "internalType": "address",
          "name": "spender",
          "type": "address"
        },
        {
          "indexed": false,
          "internalType": "uint256",
          "name": "value",
          "type": "uint256"
        }
      ],
      "name": "Approval",
      "type": "event"
    },
    {
      "anonymous": false,
      "inputs": [
        {
          "indexed": true,
          "internalType": "uint256",
          "name": "assetId",
          "type": "uint256"
        },
        {
          "indexed": true,
          "internalType": "address",
          "name": "owner",
          "type": "address"
        }
      ],
      "name": "AssetRegistered",
      "type": "event"
    },
    {
      "anonymous": false,
      "inputs": [
        {
          "indexed": true,
          "internalType": "address",
          "name": "from",
          "type": "address"
        },
        {
          "indexed": true,
          "internalType": "address",
          "name": "to",
          "type": "address"
        },
        {
          "indexed": false,
          "internalType": "uint256",
          "name": "value",
          "type": "uint256"
        }
      ],
      "name": "Transfer",
      "type": "event"
    },
    {
      "inputs": [
        {
          "internalType": "address",
          "name": "",
          "type": "address"
        },
        {
          "internalType": "address",
          "name": "",
          "type": "address"
        }
      ],
      "name": "allowance",
      "outputs": [
        {
          "internalType": "uint256",
          "name": "",
          "type": "uint256"
        }
      ],
      "stateMutability": "view",
      "type": "function",
      "constant": true
    },
    {
      "inputs": [
        {
          "internalType": "uint256",
          "name": "",
          "type": "uint256"
        }
      ],
      "name": "assetOwners",
      "outputs": [
        {
          "internalType": "address",
          "name": "",
          "type": "address"
        }
      ],
      "stateMutability": "view",
      "type": "function",
      "constant": true
    },
    {
      "inputs": [
        {
          "internalType": "address",
          "name": "",
          "type": "address"
        }
      ],
      "name": "balanceOf",
      "outputs": [
        {
          "internalType": "uint256",
          "name": "",
          "type": "uint256"
        }
      ],
      "stateMutability": "view",
      "type": "function",
      "constant": true
    },
    {
      "inputs": [],
      "name": "decimals",
      "outputs": [
        {
          "internalType": "uint256",
          "name": "",
          "type": "uint256"
        }
      ],
      "stateMutability": "view",
      "type": "function",
      "constant": true
    },
    {
      "inputs": [],
      "name": "name",
      "outputs": [
        {
          "internalType": "string",
          "name": "",
          "type": "string"
        }
      ],
      "stateMutability": "view",
      "type": "function",
      "constant": true
    },
    {
      "inputs": [],
      "name": "owner",
      "outputs": [
        {
          "internalType": "address",
          "name": "",
          "type": "address"
        }
      ],
      "stateMutability": "view",
      "type": "function",
      "constant": true
    },
    {
      "inputs": [],
      "name": "symbol",
      "outputs": [
        {
          "internalType": "string",
          "name": "",
          "type": "string"
        }
      ],
      "stateMutability": "view",
      "type": "function",
      "constant": true
    },
    {
      "inputs": [],
      "name": "totalSupply",
      "outputs": [
        {
          "internalType": "uint256",
          "name": "",
          "type": "uint256"
        }
      ],
      "stateMutability": "view",
      "type": "function",
      "constant": true
    },
    {
      "inputs": [
        {
          "internalType": "address",
          "name": "_to",
          "type": "address"
        },
        {
          "internalType": "uint256",
          "name": "_value",
          "type": "uint256"
        }
      ],
      "name": "transfer",
      "outputs": [
        {
          "internalType": "bool",
          "name": "success",
          "type": "bool"
        }
      ],
      "stateMutability": "nonpayable",
      "type": "function"
    },
    {
      "inputs": [
        {
          "internalType": "address",
          "name": "_spender",
          "type": "address"
        },
        {
          "internalType": "uint256",
          "name": "_value",
          "type": "uint256"
        }
      ],
      "name": "approve",
      "outputs": [
        {
          "internalType": "bool",
          "name": "success",
          "type": "bool"
        }
      ],
      "stateMutability": "nonpayable",
      "type": "function"
    },
    {
      "inputs": [
        {
          "internalType": "address",
          "name": "_from",
          "type": "address"
        },
        {
          "internalType": "address",
          "name": "_to",
          "type": "address"
        },
        {
          "internalType": "uint256",
          "name": "_value",
          "type": "uint256"
        }
      ],
      "name": "transferFrom",
      "outputs": [
        {
          "internalType": "bool",
          "name": "success",
          "type": "bool"
        }
      ],
      "stateMutability": "nonpayable",
      "type": "function"
    },
    {
      "inputs": [
        {
          "internalType": "uint256",
          "name": "_assetId",
          "type": "uint256"
        }
      ],
      "name": "registerAsset",
      "outputs": [
        {
          "internalType": "bool",
          "name": "success",
          "type": "bool"
        }
      ],
      "stateMutability": "nonpayable",
      "type": "function"
    },
    {
      "inputs": [
        {
          "internalType": "uint256",
          "name": "_assetId",
          "type": "uint256"
        },
        {
          "internalType": "address",
          "name": "_newOwner",
          "type": "address"
        }
      ],
      "name": "transferAsset",
      "outputs": [
        {
          "internalType": "bool",
          "name": "success",
          "type": "bool"
        }
      ],
      "stateMutability": "nonpayable",
      "type": "function"
    },
    {
      "inputs": [
        {
          "internalType": "uint256",
          "name": "_amount",
          "type": "uint256"
        }
      ],
      "name": "mint",
      "outputs": [],
      "stateMutability": "nonpayable",
      "type": "function"
    }
  ],
  "bytecode": "0x60a06040523480156200001157600080fd5b5060405162000d1c38038062000d1c83398101604081905262000034916200006b565b33608052620000466006600a6200019a565b620000529082620001af565b60008181553381526001602052604090205550620001c9565b6000602082840312156200007e57600080fd5b5051919050565b634e487b7160e01b600052601160045260246000fd5b600181815b80851115620000dc578160001904821115620000c057620000c062000085565b80851615620000ce57918102915b93841c9390800290620000a0565b509250929050565b600082620000f55750600162000194565b81620001045750600062000194565b81600181146200011d5760028114620001285762000148565b600191505062000194565b60ff8411156200013c576200013c62000085565b50506001821b62000194565b5060208310610133831016604e8410600b84101617156200016d575081810a62000194565b6200017983836200009b565b806000190482111562000190576200019062000085565b0290505b92915050565b6000620001a88383620000e4565b9392505050565b808202811582820484141762000194576200019462000085565b608051610b29620001f3600039600081816101fc0152818161058d01526106550152610b296000f3fe608060405234801561001057600080fd5b50600436106100ea5760003560e01c806370a082311161008c578063a0712d6811610066578063a0712d681461023f578063a9059cbb14610254578063dd62ed3e14610267578063fa62ee8d1461029257600080fd5b806370a08231146101d75780638da5cb5b146101f757806395d89b411461021e57600080fd5b806323b872dd116100c857806323b872dd14610168578063313ce5671461017b578063582fd617146101835780636999f8431461019657600080fd5b806306fdde03146100ef578063095ea7b31461012e57806318160ddd14610151575b600080fd5b6101186040518060400160405280600a81526020016920b9b9b2ba2a37b5b2b760b11b81525081565b604051610125919061084f565b60405180910390f35b61014161013c3660046108b9565b6102a5565b6040519015158152602001610125565b61015a60005481565b604051908152602001610125565b6101416101763660046108e3565b610312565b61015a600681565b61014161019136600461091f565b6104c9565b6101bf6101a436600461091f565b6003602052600090815260409020546001600160a01b031681565b6040516001600160a01b039091168152602001610125565b61015a6101e5366004610938565b60016020526000908152604090205481565b6101bf7f000000000000000000000000000000000000000000000000000000000000000081565b61011860405180604001604052806002815260200161105560f21b81525081565b61025261024d36600461091f565b610582565b005b6101416102623660046108b9565b61069b565b61015a61027536600461095a565b600260209081526000928352604080842090915290825290205481565b6101416102a036600461098d565b61077f565b3360008181526002602090815260408083206001600160a01b038716808552925280832085905551919290917f8c5be1e5ebec7d5bd14f71427d1e84f3dd0314c0f7b2291e5b200ac8c7c3b925906103009086815260200190565b60405180910390a35060015b92915050565b6001600160a01b0383166000908152600160205260408120548211156103765760405162461bcd60e51b8152602060048201526014602482015273496e73756666696369656e742062616c616e636560601b60448201526064015b60405180910390fd5b6001600160a01b03841660009081526002602090815260408083203384529091529020548211156103de5760405162461bcd60e51b8152602060048201526012602482015271105b1b1bddd85b98d948195e18d95959195960721b604482015260640161036d565b6001600160a01b038416600090815260016020526040812080548492906104069084906109c6565b90915550506001600160a01b038316600090815260016020526040812080548492906104339084906109d9565b90915550506001600160a01b03841660009081526002602090815260408083203384529091528120805484929061046b9084906109c6565b92505081905550826001600160a01b0316846001600160a01b03167fddf252ad1be2c89b69c2b068fc378daa952ba7f163c4a11628f55a4df523b3ef846040516104b791815260200190565b60405180910390a35060019392505050565b6000818152600360205260408120546001600160a01b03161561052e5760405162461bcd60e51b815260206004820152601860248201527f417373657420616c726561647920726567697374657265640000000000000000604482015260640161036d565b60008281526003602052604080822080546001600160a01b031916339081179091559051909184917f85819f62de3f36778ef25274607ec7071cf41151e6e04a29971d86f30e8bbf919190a3506001919050565b336001600160a01b037f000000000000000000000000000000000000000000000000000000000000000016146106095760405162461bcd60e51b815260206004820152602660248201527f4f6e6c7920746865206f776e65722063616e20706572666f726d20746869732060448201526530b1ba34b7b760d11b606482015260840161036d565b6106156006600a610ad0565b61061f9082610adc565b60008082825461062f91906109d9565b9091555061064190506006600a610ad0565b61064b9082610adc565b6001600160a01b037f000000000000000000000000000000000000000000000000000000000000000016600090815260016020526040812080549091906106939084906109d9565b909155505050565b336000908152600160205260408120548211156106f15760405162461bcd60e51b8152602060048201526014602482015273496e73756666696369656e742062616c616e636560601b604482015260640161036d565b33600090815260016020526040812080548492906107109084906109c6565b90915550506001600160a01b0383166000908152600160205260408120805484929061073d9084906109d9565b90915550506040518281526001600160a01b0384169033907fddf252ad1be2c89b69c2b068fc378daa952ba7f163c4a11628f55a4df523b3ef90602001610300565b6000828152600360205260408120546001600160a01b031633146107f15760405162461bcd60e51b815260206004820152602360248201527f596f7520617265206e6f7420746865206f776e6572206f6620746869732061736044820152621cd95d60ea1b606482015260840161036d565b60008381526003602052604080822080546001600160a01b0319166001600160a01b0386169081179091559051909185917f85819f62de3f36778ef25274607ec7071cf41151e6e04a29971d86f30e8bbf919190a350600192915050565b600060208083528351808285015260005b8181101561087c57858101830151858201604001528201610860565b506000604082860101526040601f19601f8301168501019250505092915050565b80356001600160a01b03811681146108b457600080fd5b919050565b600080604083850312156108cc57600080fd5b6108d58361089d565b946020939093013593505050565b6000806000606084860312156108f857600080fd5b6109018461089d565b925061090f6020850161089d565b9150604084013590509250925092565b60006020828403121561093157600080fd5b5035919050565b60006020828403121561094a57600080fd5b6109538261089d565b9392505050565b6000806040838503121561096d57600080fd5b6109768361089d565b91506109846020840161089d565b90509250929050565b600080604083850312156109a057600080fd5b823591506109846020840161089d565b634e487b7160e01b600052601160045260246000fd5b8181038181111561030c5761030c6109b0565b8082018082111561030c5761030c6109b0565b600181815b80851115610a27578160001904821115610a0d57610a0d6109b0565b80851615610a1a57918102915b93841c93908002906109f1565b509250929050565b600082610a3e5750600161030c565b81610a4b5750600061030c565b8160018114610a615760028114610a6b57610a87565b600191505061030c565b60ff841115610a7c57610a7c6109b0565b50506001821b61030c565b5060208310610133831016604e8410600b8410161715610aaa575081810a61030c565b610ab483836109ec565b8060001904821115610ac857610ac86109b0565b029392505050565b60006109538383610a2f565b808202811582820484141761030c5761030c6109b056fea2646970667358221220fc61dd3ae06200d367e135c282b806260e43401452a7240d7afd71745097c30364736f6c63430008120033",
  "immutableReferences": {
    "3": [
      {
        "length": 32,
        "start": 508
      },
      {
        "length": 32,
        "start": 1421
      },
      {
        "length": 32,
        "start": 1621
      }
    ]
  },
  "source": "// SPDX-License-Identifier: MIT\r\npragma solidity ^0.8.18;\r\n\r\ncontract AssetTokenization {\r\n\r\n    address public immutable owner;\r\n\r\n    // Token details\r\n    string public constant name = \"AssetToken\";\r\n    string public constant symbol = \"AT\";\r\n    uint256 public constant decimals = 6;\r\n\r\n    uint256 public totalSupply;\r\n\r\n    // Ownership mapping\r\n    mapping(address => uint256) public balanceOf;\r\n    mapping(address => mapping(address => uint256)) public allowance;\r\n\r\n    // Owner mapping for asset\r\n    mapping(uint256 => address) public assetOwners;\r\n\r\n\r\n    // Events\r\n    event Transfer(address indexed from, address indexed to, uint256 value);\r\n    event Approval(address indexed owner, address indexed spender, uint256 value);\r\n    event AssetRegistered(uint256 indexed assetId, address indexed owner);\r\n\r\n\r\n    // Modifiers\r\n    modifier onlyOwner() {\r\n        require(msg.sender == owner, \"Only the owner can perform this action\");\r\n        _;\r\n    }\r\n\r\n\r\n    /**\r\n     * @dev Constructor function to initialize contract and set the initial supply of tokens.\r\n     * @param _initialSupply Initial amount of tokens to mint.\r\n     */\r\n    constructor(uint256 _initialSupply) {\r\n        owner = msg.sender;\r\n        totalSupply = _initialSupply * 10 ** decimals;\r\n        balanceOf[msg.sender] = totalSupply;\r\n    }\r\n\r\n\r\n    /**\r\n     * @dev Function to transfer tokens.\r\n     * @param _to The address to transfer tokens to.\r\n     * @param _value The amount of tokens to transfer.\r\n     * @return success Returns true if transfer is successful.\r\n     */\r\n    function transfer(address _to, uint256 _value) public returns (bool success) {\r\n        require(balanceOf[msg.sender] >= _value, \"Insufficient balance\");\r\n        balanceOf[msg.sender] -= _value;\r\n        balanceOf[_to] += _value;\r\n        emit Transfer(msg.sender, _to, _value);\r\n        return true;\r\n    }\r\n\r\n\r\n    /**\r\n     * @dev Function to approve a spender.\r\n     * @param _spender The address of the account allowed to spend.\r\n     * @param _value The amount of tokens to approve.\r\n     * @return success Returns true if approval is successful.\r\n     */\r\n    function approve(address _spender, uint256 _value) public returns (bool success) {\r\n        allowance[msg.sender][_spender] = _value;\r\n        emit Approval(msg.sender, _spender, _value);\r\n        return true;\r\n    }\r\n\r\n\r\n    /**\r\n     * @dev Function to transfer tokens from one address to another.\r\n     * @param _from The address to transfer tokens from.\r\n     * @param _to The address to transfer tokens to.\r\n     * @param _value The amount of tokens to transfer.\r\n     * @return success Returns true if transfer is successful.\r\n     */\r\n    function transferFrom(address _from, address _to, uint256 _value) public returns (bool success) {\r\n        require(_value <= balanceOf[_from], \"Insufficient balance\");\r\n        require(_value <= allowance[_from][msg.sender], \"Allowance exceeded\");\r\n        balanceOf[_from] -= _value;\r\n        balanceOf[_to] += _value;\r\n        allowance[_from][msg.sender] -= _value;\r\n        emit Transfer(_from, _to, _value);\r\n        return true;\r\n    }\r\n\r\n\r\n    /**\r\n     * @dev Function to register asset ownership.\r\n     * @param _assetId Unique identifier for the asset.\r\n     * @return success Returns true if registration is successful.\r\n     */\r\n    function registerAsset(uint256 _assetId) public returns (bool success) {\r\n        require(assetOwners[_assetId] == address(0), \"Asset already registered\");\r\n        assetOwners[_assetId] = msg.sender;\r\n        emit AssetRegistered(_assetId, msg.sender);\r\n        return true;\r\n    }\r\n\r\n\r\n    /**\r\n     * @dev Function to transfer asset ownership.\r\n     * @param _assetId Unique identifier for the asset.\r\n     * @param _newOwner Address of the new owner of the asset.\r\n     * @return success Returns true if transfer is successful.\r\n     */\r\n    function transferAsset(uint256 _assetId, address _newOwner) public returns (bool success) {\r\n        require(assetOwners[_assetId] == msg.sender, \"You are not the owner of this asset\");\r\n        assetOwners[_assetId] = _newOwner;\r\n        emit AssetRegistered(_assetId, _newOwner);\r\n        return true;\r\n    }\r\n\r\n\r\n    /**\r\n     * @dev Function to mint new tokens.\r\n     * @param _amount Amount of new tokens to create.\r\n     */\r\n    function mint(uint256 _amount) public onlyOwner {\r\n        totalSupply += _amount * 10 ** decimals;\r\n        balanceOf[owner] += _amount * 10 ** decimals;\r\n    }\r\n\r\n}\r\n",
  "sourcePath": "C:\\Users\\krish\\OneDrive\\Desktop\\MINI PROJECT\\asset-tokenization\\contracts\\AssetTokenization.sol",
  "compiler": {
    "name": "solc",
    "version": "0.8.18+commit.87f61d96.Emscripten.clang"
  },
  "schemaVersion": "3.4.16",
  "updatedAt": "2024-04-29T20:53:23.409Z",
  "networkType": "ethereum",
  "devdoc": {
    "kind": "dev",
    "methods": {
      "approve(address,uint256)": {
        "details": "Function to approve a spender.",
        "params": {
          "_spender": "The address of the account allowed to spend.",
          "_value": "The amount of tokens to approve."
        },
        "returns": {
          "success": "Returns true if approval is successful."
        }
      },
      "constructor": {
        "details": "Constructor function to initialize contract and set the initial supply of tokens.",
        "params": {
          "_initialSupply": "Initial amount of tokens to mint."
        }
      },
      "mint(uint256)": {
        "details": "Function to mint new tokens.",
        "params": {
          "_amount": "Amount of new tokens to create."
        }
      },
      "registerAsset(uint256)": {
        "details": "Function to register asset ownership.",
        "params": {
          "_assetId": "Unique identifier for the asset."
        },
        "returns": {
          "success": "Returns true if registration is successful."
        }
      },
      "transfer(address,uint256)": {
        "details": "Function to transfer tokens.",
        "params": {
          "_to": "The address to transfer tokens to.",
          "_value": "The amount of tokens to transfer."
        },
        "returns": {
          "success": "Returns true if transfer is successful."
        }
      },
      "transferAsset(uint256,address)": {
        "details": "Function to transfer asset ownership.",
        "params": {
          "_assetId": "Unique identifier for the asset.",
          "_newOwner": "Address of the new owner of the asset."
        },
        "returns": {
          "success": "Returns true if transfer is successful."
        }
      },
      "transferFrom(address,address,uint256)": {
        "details": "Function to transfer tokens from one address to another.",
        "params": {
          "_from": "The address to transfer tokens from.",
          "_to": "The address to transfer tokens to.",
          "_value": "The amount of tokens to transfer."
        },
        "returns": {
          "success": "Returns true if transfer is successful."
        }
      }
    },
    "version": 1
  },
  "userdoc": {
    "kind": "user",
    "methods": {},
    "version": 1
  }
}